:060000000A128A11122809
:10000800FE00030EF2000408F3000A08F40083124D
:1000180003137F08F5000A128A150F2C0A128A1199
:100028001528831603130A128A158C230A128A11BB
:10003800B2000A128A158D230A128A11B3000A1215
:100048008A158E230A128A11B4000A128A158F2380
:100058000A128A11B5000A128A1590230A128A1107
:10006800F6000A128A1591230A128A11F7000A1259
:100078008A1592230A128A11F8000A128A15932304
:10008800F900FA01FB0183010A128A11D72B8316A2
:100098000313A60183120313680867046604031D8B
:1000A80075280030A0000030A1000030A2006908C7
:1000B800A3006A08A4006B08A5000A128A119F27EA
:1000C8000A128A11031C6C282130FA000030FB0048
:1000D800003083120313E6000030E7000030E80028
:1000E80008006B086A046904031D81280030E600D3
:1000F8008030E7003F30E80008006608A000670885
:10010800A1006808A2000030A3000030A40000305D
:10011800A5000A128A119F270A128A1103180D29AD
:10012800831203136908AC006A08AD006B08AE00BF
:100138000A128A1572270A128A11831203132F08CA
:1001480083160313AA00831203132E0883160313BE
:10015800A900831203132D0883160313A800831222
:1001680003132C0883160313A7002A08831203130A
:10017800AB0083160313290883120313AA008316FE
:100188000313280883120313A900831603132708EF
:1001980083120313A8000A128A1538240A128A1136
:1001A800831203136B082A06031DE0286A08290630
:1001B800031DE028690828060319ED282130FA00F4
:1001C8000030FB000030E6000030E7000030E800B7
:1001D8000800831603132708013983120313EC0060
:1001E8006C0883160313A600831203136608A00085
:1001F8006708A1006808A2000A128A1594230A1247
:100208008A11831203132008E6002108E700220858
:10021800E800831203136608D5006708D60068084B
:10022800D7000A128A1186250A128A11831203132B
:10023800550883160313A000831203135608831668
:100248000313A10083120313570883160313A20094
:10025800831203136908AE006A08AF006B08B00088
:1002680083160313200883120313B10083160313A4
:10027800210883120313B200831603132208831282
:100288000313B3000A128A11B3240A128A118312C3
:1002980003132E0883160313A300831203132F08D6
:1002A80083160313A4008312031330088316031361
:1002B800A500230883120313DC0083160313240804
:1002C80083120313DD008316031325088312031317
:1002D800DE000A128A1193210A128A11831203136B
:1002E8005C08E6005D08E7005E08E8008316031373
:1002F800260803190800831203136608A00067087C
:10030800A1006808A2000A128A1594238312031315
:100318002008E6002108E7002208E8000800831208
:1003280003135E085D045C04031DA1290030DC0092
:100338008030DD003F30DE0008007230A000313030
:10034800A1004430A2005C08A3005D08A4005E0878
:10035800A5000A128A119F270A128A110318C129B7
:100368002230FA000030FB00FF3083120313DC0058
:100378007F30DD007F30DE000800831203135C0845
:10038800A0005D08A1005E08A2004930A3003A3031
:10039800A400C430A5000A128A119F270A128A11E4
:1003A8000318E3292230FA000030FB0000308312E2
:1003B8000313DC000030DD000030DE00080083128B
:1003C80003135C08A0005D08A1005E08A2000030CD
:1003D800A3000030A4000030A5000A128A119F274C
:1003E8000A128A110318FA290130FB2900308312F6
:1003F8000313DF005F08E50065080319162A5C0887
:10040800A0005D08A1005E08A2000A128A159423C4
:100418000A128A11831203132008DC002108DD0068
:100428002208DE00AA30AE00B830AF003F30B0007E
:100438005C08B1005D08B2005E08B3000A128A11B8
:10044800B3240A128A11831203132E08DC002F0822
:10045800DD003008DE005C08CB005D08CC005E08DB
:10046800CD000A128A1106270A128A118312031371
:100478004B08E0004C08E1004D08E2006008AC00C1
:100488006108AD006208AE000A128A1572270A12C6
:100498008A11831203132D08E4002C08E300640872
:1004A800A9006308A8000A128A15EA230A128A1109
:1004B800831203132808CB002908CC002A08CD0092
:1004C8005C08CE005D08CF005E08D0000A128A15CD
:1004D800C9230A128A11831203134B08DC004C0843
:1004E800DD004D08DE005C08CB005D08CC005E082E
:1004F800CD000130DF005F08CE000930CF000030AA
:10050800D0000A128A1577260A128A118312031359
:100518004B08D5004C08D6004D08D7006408D90010
:100528006308D8000A128A15F0260A128A11831263
:1005380003135508DC005608DD005708DE0065087F
:10054800031908005C0A7F3003195D067F30031920
:100558005E06031DB62A0030DC000030DD000030E6
:10056800DE0008005C08A8005D08A9005E08AA0073
:100578000030AB008030AC003F30AD000A128A1169
:100588004E26831203132808DC002908DD002A08F8
:10059800DE000800831203133E08C4003F08C500AC
:1005A8004008C6000310450D460DC7004708CA009D
:1005B8004108C4004208C5004308C6000310450DA1
:1005C800460DC7004708C9004A080319F72A490811
:1005D8004A020318FE2A4A03FF3A4907C4001930A1
:1005E8004402031CFE2A4108BE004208BF0043081B
:1005F800C00008004908031908004A0849020318FE
:100608000D2B4903FF3A4A07C40019304402031866
:1006180008000630C4004408C800C01BC817C31B24
:100628004817BF17FF30BE05FF30BF050030C005B3
:10063800C217FF30C105FF30C2050030C3054908A5
:100648004A0203184D2B01300310C10DC20DC30D12
:10065800FF3E031D282B0130C90249084A06031929
:10066800482B0130C802480807390319482B272BA3
:1006780001300310C00CBF0CBE0CFF3E031D3D2B08
:100688000130C4004408CA074A0849060319762BF2
:100698003C2B4A0849020318762B01300310BE0D83
:1006A800BF0DC00DFF3E031D522B0130CA02490881
:1006B8004A060319722B0130C80248080739031982
:1006C800722B512B01300310C30CC20CC10CFF3E1E
:1006D800031D672B0130C4004408C9074A084906AE
:1006E800031D662BC81F882BFF30BE06FF30BF06D0
:1006F800FF30C0060130BE07003003180130BF07C5
:10070800003003180130C007481F9A2BFF30C1067C
:10071800FF30C206FF30C3060130C107003003189E
:100728000130C207003003180130C307C8013E0872
:10073800C1073F08031103183F0A031DC2074008F9
:1007480003110318400A031DC307C31FBD2BFF3045
:10075800C106FF30C206FF30C3060130C1070030B2
:1007680003180130C207003003180130C307C8015D
:10077800C80A4108A0004208A1004308A2004A088C
:10078800C4004408A3004808C5004508A4000A128C
:100798008A150926831203132008BE002108BF000A
:1007A8002208C00008008316031387010130831252
:1007B80003138700FF30831603138600831603177D
:1007C80088018901831603138801831203138801A2
:1007D8008B170B1683160313B001B1010730831270
:1007E8000313B4000030B5000A128A152C250A122A
:1007F8008A11831203132E08B7002D08B6000A12B7
:100808008A15BC250A128A11831203133508831628
:100818000313B50083120313340883160313B400BB
:10082800350883120313A9008316031334088312AF
:100838000313A8000A128A15B1230A128A11831217
:1008480003132808E9002908EA002A08EB00003009
:10085800E6000030E7004030E8000A128A114B2019
:100868000A128A1183120313660883160313AB0056
:1008780083120313670883160313AC008312031350
:10088800680883160313AD002B0883120313AC000A
:10089800831603132C0883120313AD008316031366
:1008A8002D0883120313AE000A128A1572270A1242
:1008B8008A11831203132D0883160313B5008312BC
:1008C80003132C0883160313B40033083506031DDD
:1008D8006F2C320834060319F22BAE01AF012F0832
:1008E800803AFF0080307F02031D7C2C05302E02E9
:1008F8000318F22B0A128A1573250A128A1141303D
:1009080083120313EE00ED30ED00ED0B892CEE0B96
:10091800892C8E2C831603133508B1003408B000D7
:10092800B401B5010A128A1573250A128A114130D9
:1009380083120313EE00ED30ED00ED0BA12CEE0B4E
:10094800A12CA62C831603133108B5003008B40077
:100958000130AE070318AF0A0030AF07732C8312BB
:1009680003132E08B4002F08B5003008B600031092
:10097800350D360DB7003708B8003808031DCB2CE5
:100988000030AE000030AF000030B0000800310881
:10099800B4003208B5003308B6000310350D360D23
:1009A800B7003708BD003D08031DE12C0030AE003C
:1009B8000030AF000030B00008003D087B3EB400B6
:1009C8003408B8072E08B4002F08B5003008B60060
:1009D80010300310B60CB50CB40CFF3E031DED2C03
:1009E8003408B7003708BD003108B4003208B50034
:1009F8003308B60010300310B60CB50CB40CFF3E2B
:100A0800031DFF2C3408B7003708BD068030B4003A
:100A18003408BD05AF17B217FF30B105FF30B20576
:100A28000030B3050030B9000030BA000030BB0018
:100A38000730B4003408BC002E1C302D3108B9072B
:100A4800320803110318320A031DBA0733080311C9
:100A58000318330A031DBB0701300310B00CAF0C99
:100A6800AE0CFF3E031D312D01300310B10DB20D48
:100A7800B30DFF3E031D392D0130BC02031D202D8F
:100A88000930B4003408BC002E1C582D3108B907B1
:100A9800320803110318320A031DBA073308031179
:100AA8000318330A031DBB0701300310B00CAF0C49
:100AB800AE0CFF3E031D592D01300310BB0CBA0CC0
:100AC800B90CFF3E031D612D0130BC02031D482DEA
:100AD8003908A0003A08A1003B08A2003808B40071
:100AE8003408A3003D08B5003508A4000A128A1589
:100AF8000926831203132008AE002108AF0022083C
:100B0800B0000800831203135508A0005608A1007E
:100B18005708A2000030A3000030A4000030A50050
:100B28000A128A119F270A128A110318A82D213048
:100B3800FA000030FB00003083120313D5000030A8
:100B4800D6000030D7000800831203135708560454
:100B58005504031DBA2D2230FA000030FB00003086
:100B6800D5000030D6000030D70008000030BE00A5
:100B78008030BF00BF30C0000030AE000030AF0092
:100B88004030B0005930D8005808A3005508A000DC
:100B98005608A1005708A2000A128A15EA240A1268
:100BA8008A11831203132008B1002108B200220819
:100BB800B3000A128A11B3240A128A11831203138A
:100BC8002E08C1002F08C2003008C3000A128A117B
:100BD800CE220A128A11831203133E08D5003F0859
:100BE800D6004008D700FF30D9070318DA0AFF30CB
:100BF800DA075508CB005608CC005708CD001F303F
:100C0800D8005808CE000830CF000030D0000A12B3
:100C18008A1577260A128A11831203134B08D50006
:100C28004C08D6004D08D7005508BE005608BF002E
:100C38005708C0007230AE003130AF003F30B0000E
:100C48005A08A9005908A8000A128A15EA230A12A4
:100C58008A11831203132808B1002908B2002A0850
:100C6800B3000A128A11B3240A128A1183120313D9
:100C78002E08C1002F08C2003008C3000A128A11CA
:100C8800CE22831203133E08D5003F08D600400841
:100C9800D7000800831203132B08AE002C08AF00FE
:100CA8002D08B00003102F0D300DB1003108B6002B
:100CB8003608031D662E0030A8000030A900003059
:100CC800AA0008002808AE002908AF002A08B000CA
:100CD80003102F0D300DB1003108B7003708031D80
:100CE8007C2E0030A8000030A9000030AA000800BF
:100CF8000030B3000030B4000030B5008930370749
:100D0800AE002E08B6022B08AE002C08AF002D0846
:100D1800B00010300310B00CAF0CAE0CFF3E031D3A
:100D28008E2E2E08B1003108B7002808AE00290819
:100D3800AF002A08B00010300310B00CAF0CAE0C96
:100D4800FF3E031DA02E2E08B1003108B7068030E3
:100D5800AE002E08B705AC17FF30AB05FF30AC0569
:100D68000030AD05A917FF30A805FF30A9050030F0
:100D7800AA051830AE002E08B20001300310B30DDA
:100D8800B40DB50DFF3E031DC22E2A082D02031D0A
:100D9800D32E29082C02031DD32E28082B02031C4E
:100DA800E02E2808AB022908031C290FAC022A08E8
:100DB800031C2A0AAD02331401300310AB0DAC0D2D
:100DC800AD0DFF3E031DE12E0130B202031DC12E01
:100DD8003308A0003408A1003508A2003608AE0088
:100DE8002E08A3003708AF002F08A4000A128A159E
:100DF8000926831203132008A8002108A900220845
:100E0800AA000800831203134B08A0004C08A10095
:100E18004D08A2005230CE004E08A3000A128A15CF
:100E2800EA240A128A1183120313D31F402F4B0896
:100E3800A0004C08A1004D08A2000030A30000301B
:100E4800A4000030A5000A128A119F270A128A11ED
:100E58000318372F003083120313CB008030CC00E7
:100E6800BF30CD000800003083120313CB000030E0
:100E7800CC000030CD0008000030530215300319B3
:100E88005202031808004B08AC004C08AD004D088E
:100E9800AE000A128A1572270A128A1183120313E6
:100EA8002F08BD002E08BC002D08BB002C08BA0076
:100EB8000A128A15A8240A128A11831203133A08FF
:100EC800CF003B08D0003C08D1004B08A0004C08DC
:100ED800A1004D08A2004F08A3005008A400510823
:100EE800A5000A128A119F270A128A110318962F41
:100EF800003083120313BE008030BF00BF30C00033
:100F08004F08C1005008C2005108C3000A128A11D4
:100F1800CE22831203133E08CB003F08CC004008C2
:100F2800CD000800831203134F08CB005008CC00F3
:100F38005108CD00080083120313A21FC82F0030E8
:100F4800A6000030A7008030A8002009A9002109C8
:100F5800AA002209AB00A90A0319AA0A0319AB0AB5
:100F68002908A6072A0803182A0FBB2FBC2FA70792
:100F78002B0803182B0FC12FC22FA8072608A00083
:100F88002708A1002808A200A51FEF2F0030A600FF
:100F98000030A7008030A8002309A9002409AA006E
:100FA8002509AB00A90A0319AA0A0319AB0A2908DB
:100FB800A6072A0803182A0FE22FE32FA7072B08F2
:100FC80003182B0FE82FE92FA8072608A3002708E6
:100FD800A4002808A5008030A2068030A5062508B0
:100FE8002202031D080024082102031D080023080B
:040FF80020020800CB
:1010000008308A000408840A8207003400348034DF
:101010003F34723431343F34FE3475343E34583406
:1010200063343D3495341D343C34C534AE343A34E5
:101030007934213439349434803437349334A734B8
:10104000353456341534343400340034003400342C
:1010500080343F34F034FF34BE34E234A9343E34BB
:1010600083347634BE34AE342B343E343C34C33413
:0E107000BD34D23413343D347834D334BB3421
:10171800013400340434003401340034003400341B
:1017280083120313220821042004031908008030BF
:10173800A206080083120313A300A201231CA82BEE
:101748002008A1002108A2070310A00D0310A30C74
:101758002308031DA22B220808008312031328085C
:10176800A0002908A100A2018E30AB002B08A3001D
:10177800A4010A128A150926831203132008A80057
:101788002108A9002208AA000800831203134D08A3
:101798004C044B040319D22B8030CD064E08BE00F2
:1017A8004F08BF005008C0004B08C1004C08C200D9
:1017B8004D08C3000A128A11CE22831203133E0871
:1017C800CB003F08CC004008CD000800831203136B
:1017D800AD01A91FF62BA809A909A80A0319A90A86
:1017E800AD01AD0A2808A0002908A100A2018E3089
:1017F800AB002B08A3002D08AC002C08A4000A128B
:101808008A150926831203132008A8002108A900B5
:101818002208AA0008008B1C2C2C4130F100EE3065
:10182800F000F00B152CF10B152C00008316031398
:101838003203330403192B2C3308F1003208F0006B
:101848000310F10CF00C7008B2007108B3008B1093
:1018580075088312FF0074088A0073088400720EEA
:101868008300FE0E7E0E09008E3083120313AC0037
:101878002C08AD00FF302B050319502C0130031044
:10188800AB0CAA0CA90CA80CFF3E031D432C01307D
:10189800AC002C08AD073E2C2808A0002908A100A0
:1018A8002A08A2002D08AC002C08A300A4010A12E3
:1018B8008A150926831203132008A8002108A90005
:1018C8002208AA000800003083120313AC0000307D
:1018D800AB000030AA000030A900201C872C240887
:1018E800A907250803110318013E031DAA072608A6
:1018F80003110318013E031DAB0727080311031842
:10190800013E031DAC070130A8000310A40DA50D6E
:10191800A60DA70DA80B892C01300310A30CA20C4F
:10192800A10CA00CFF3E031D912C230822042104C6
:101938002004031D712C2C08A3002B08A2002A08E0
:10194800A1002908A000080083120313C1018E30EA
:10195800BE003E08C000BD1FBE2CBA09BB09BC09A9
:10196800BD09BA0A0319BB0A0319BC0A0319BD0A3F
:10197800C101C10AFF303D050319D02C0130031005
:10198800BD0CBC0CBB0CBA0CFF3E031DC32C0130B4
:10199800BE003E08C007BE2C3A08A0003B08A100C4
:1019A8003C08A2004008BE003E08A3004108BF0052
:1019B8003F08A4000A128A15092683120313200877
:1019C800BA002108BB002208BC00080083120313D8
:1019D800220821042004031DFE2C230884008313FD
:1019E8008001840A80010030A0000030A10000308E
:1019F800A200080022087F39A400A5010310A40D45
:101A0800A50D23088400240883138000840A250870
:101A18008000210D210D0139A400A50123088400AF
:101A280024088004840A250880042308840082305E
:101A38008007840F00080318000AFF00FF307F07A3
:101A480080008403220880393F38A200A1130800CF
:101A5800790883120313A3007808A2007708A1006D
:101A68007608A0004130A700C630A6004E30A50079
:101A78006D30A4000A128A1567240A128A15831287
:101A880003132308F9002208F8002108F7002008AA
:101A9800F6003930F607303003183130F7070030D8
:101AA80003180130F807003003180130F9077608E9
:101AB800AF007708B0007808B1007908B20010309C
:101AC800B300320DB20CB10CB00CAF0CB30B652DDA
:101AD800FF302F05AD007F303005AE0008008316BB
:101AE800031333083506031D7B2D32083406031D06
:101AF800942D3408831203138700081410308312BE
:101B08000313A2003930A1000D30A000A00B8A2DCC
:101B1800A10B8A2DA20B8A2D83120313081008002B
:101B280083120313861FB42D413083120313A100BF
:101B3800ED30A000A00B9E2DA10B9E2DA32D83128E
:101B48000313861BA32D8030831603133206330438
:101B5800031908000310320DB200330DB30008005A
:101B6800831603133208340783120313870008000F
:101B780083120313BA01B71FC82DB609B709B60AED
:101B88000319B70ABA01BA0AB51FCF2DB409B509A6
:101B9800B40A0319B50A340835040319FC2DB90130
:101BA800B90AB51BE32D01300310B40DB50DFF3E86
:101BB800031DD82D0130B8003808B907D52D3508D0
:101BC8003702031DE92D34083602031CF12D3408B1
:101BD800B6023508031CB703B70201300310B50C71
:101BE800B40CFF3E031DF22D0130B902031DE32D95
:101BF8003A080319042EB609B709B60A0319B70A31
:101C08003708B5003608B400080083120313230808
:101C18000319132E220821042004031D262E003048
:101C2800A0000030A1000030A20008000130A5008B
:101C38002508A30701300310A20CA10CA00CFF3E3D
:101C4800031D1F2EFE3022050319412E1A2E0130C6
:101C5800A5002508A3070130A007003003180130AC
:101C6800A107003003180130A20701300310A20CAD
:101C7800A10CA00CFF3E031D3A2EFF3022050319CC
:101C8800502E2B2E0130A30201300310A00DA10D00
:101C9800A20DFF3E031D492EA11B562E0230230222
:101CA8000318462E23185E2EFF30A0057F30A105AD
:101CB800FF30A2050310A30C2308A500A601A70165
:101CC80010300310A50DA60DA70DFF3E031D652EB0
:101CD8002508A0042608A1042708A204240803193B
:101CE8000800A2170800033083120313D10051081B
:101CF800A0004F080A128A159E230A128A15831219
:101D080003134E0784000A128A1500200A128A1546
:101D1800D2000A128A1500200A128A15D3000A1264
:101D28008A1500200A128A15D4004F085004031996
:101D3800E92E0330D1005108A000FF30CF07031867
:101D4800D00AFF30D0074F080A128A159E230A12BC
:101D58008A15831203134E0784000A128A1500207D
:101D68000A128A15BE000A128A1500200A128A155C
:101D7800BF000A128A1500200A128A15C0005208EC
:101D8800AE005308AF005408B0004B08B1004C082F
:101D9800B2004D08B3000A128A11B3240A128A1538
:101DA800831203132E08C1002F08C2003008C30095
:101DB8000A128A11CE220A128A15831203133E08C8
:101DC800D2003F08D3004008982E5208CB00530891
:101DD800CC005408CD00080083120313570856049A
:101DE8005504031DFE2E0030D5000030D60000300B
:101DF800D700080057087F39DA00DB010310DA0D35
:101E0800DB0D5A08D8070318D90A5B08D907560DFD
:101E1800560D0139DA00DB015A08D8070318D90A28
:101E28005B08D907D91F232F2230FA000030FB00A6
:101E38000030D5000030D6000030D700080059081F
:101E4800803AFF0081307F02031D2C2F003058029A
:101E5800031C592F2230FA000030FB0083120313B1
:101E68005508A0005608A1005708A2000030A3009A
:101E78000030A4000030A5000A128A119F270A1218
:101E88008A150318502FFF3083120313D5007F30B3
:101E9800D600FF30D7000800FF3083120313D500A7
:101EA8007F30D6007F30D70008008312031359080B
:101EB800DB005808DA005B0DDB0CDA0C57085A0611
:101EC80080395A06D70058080139DA00DA0CDA0CDA
:101ED80056085A067F395A06D6000800831203139B
:101EE8002C08B0002D08B1002E08B2000310310DE7
:101EF800320DB3003308B9003908031D8C2F0030A8
:101F0800AF000030AE000030AD000030AC0008007B
:101F18002C08B0002D08B1002E08B20017300310AD
:101F2800B20CB10CB00CFF3E031D932F3008B30068
:101F38003308B400AD17FF30AC05FF30AD050030F5
:101F4800AE052C08B5002D08B6002E08B700B8015C
:101F58008E30B902B91FCE2F3908803A8F3E031848
:101F6800BE2F0030AF000030AE000030AD000030B2
:101F7800AC00080001300310B80CB70CB60CB50C57
:101F8800FF3E031DBF2F0130B0003008B907031909
:101F9800E92FBE2F18303902031CE62F0030AF009E
:101FA8000030AE000030AD000030AC000800013059
:101FB800B0000310B50DB60DB70DB80DB00BDD2F81
:101FC8000130B9023908031DDB2F34080319F72F34
:101FD800B509B609B709B809B50A0319B60A031944
:101FE800B70A0319B80A3808AF003708AE00360830
:081FF800AD003508AC00080043
:04400E00FCE0FFFFD4
:00000001FF
